:020000040800F2
:1000000068060020B5010008BD010008BF01000816
:10001000C1010008C3010008C5010008000000007C
:10002000000000000000000000000000C701000800
:10003000C901000800000000CB010008CD01000844
:10004000CF010008CF010008CF010008CF01000850
:10005000CF010008CF010008CF010008CF01000840
:10006000CF010008CF010008CF010008CF01000830
:10007000CF010008CF010008CF010008CF01000820
:10008000CF010008CF010008CF010008CF01000810
:10009000CF010008CF010008CF010008CF01000800
:1000A000CF010008CF010008CF010008CF010008F0
:1000B000CF010008CF010008CF010008CF010008E0
:1000C000CF010008CF010008CF010008CF010008D0
:1000D000CF010008CF010008CF010008CF010008C0
:1000E000CF010008CF010008CF01000800F002F89E
:1000F00000F050F814A696E8000CB244B344DA4578
:1001000001D100F047F8BAE80F000FA696E83000DA
:10011000A5EB040504EB0607AAEB0704A7F101070A
:100120004FEA15154FEA3414A4F10104AC4201D38F
:1001300000F030F813F0010F18BFFB1A43F0010371
:1001400000F001F8DBE71847240500004405000033
:10015000103A24BF78C878C1FAD8520724BF30C8F3
:1001600030C144BF04680C60704700007047000055
:100170000023002400250026103A28BF78C1FBD8B0
:10018000520728BF30C148BF0B6070471FB51FBD65
:1001900010B510BD00F031F81146FFF7F7FF00F081
:1001A000C3F900F04FF803B4FFF7F2FF03BC00F00F
:1001B00057F800000948804709480047FEE7FEE776
:1001C000FEE7FEE7FEE7FEE7FEE7FEE7FEE7FEE707
:1001D00004480549054A064B70470000C104000861
:1001E000ED0000086800002068060020680200207A
:1001F00068020020704770477047754600F02CF881
:10020000AE4605006946534620F00700854618B003
:1002100020B5FFF7DDFFBDE820404FF000064FF0AE
:1002200000074FF000084FF0000BAC46ACE8C009E7
:10023000ACE8C009ACE8C009ACE8C00921F007018E
:100240008D46704710B50446AFF300802046BDE8E8
:100250001040FFF7A8BF00000048704708000020CA
:1002600001491820ABBEFEE72600020070470000DF
:1002700080B500F001F880BD84B0002003900290AA
:1002800041F20001C4F20201086840F480300860C5
:10029000FFE741F20000C4F20200006800F4003001
:1002A0000290039801300390FFE70299002001902B
:1002B00039B9FFE70398B0F5A06018BF012001909D
:1002C000FFE70198C0070028E3D1FFE741F20000F3
:1002D000C4F2020000688003002803D5FFE7012074
:1002E000029002E000200290FFE70298012851D11D
:1002F000FFE742F20001C4F20201086840F010007A
:100300000860086820F007000860086840F00200F4
:10031000086041F20401C4F202010091086808601B
:1003200008680860086840F480600860086820F485
:100330007C100860086840F4E810086041F2000191
:10034000C4F20201086840F080700860FFE741F2E3
:100350000000C4F2020000688001002801D4FFE719
:10036000F5E741F20401C4F20201086820F003003D
:100370000860086840F002000860FFE741F20400EE
:10038000C4F20200006800F00C00082801D0FFE76A
:10039000F4E700E0FFE704B07047000084B00020FD
:1003A00003900290019041F20400C4F20200006840
:1003B00000F00C0003900398009040B1FFE7009814
:1003C00004280ED0FFE70098082814D056E040F229
:1003D0000001C2F2000141F20020C0F27A00086080
:1003E00056E040F20001C2F2000141F20020C0F2EA
:1003F0007A0008604CE041F20400C4F20200016897
:1004000001F470110291006800F4803001900299AB
:10041000022000EB91400290019860B9FFE702983A
:1004200040F60011C0F23D01484340F20001C2F223
:100430000001086021E041F20400C4F202000068FB
:10044000800300280CD5FFE7029840F60011C0F2A7
:100450003D01484340F20001C2F2000108600BE098
:10046000029841F20021C0F27A01484340F20001B3
:10047000C2F200010860FFE7FFE709E040F2000177
:10048000C2F2000141F20020C0F27A000860FFE7EA
:1004900041F20400C4F202000068C0B2010940F257
:1004A0005A60C0F60000405C0390039A40F20001DD
:1004B000C2F200010868D040086004B07047000034
:1004C00080B541F20002C4F20202106840F001005F
:1004D000106041F20401C4F2020108680023CFF663
:1004E000FF031840086010684FF6FF73CFF6F663FD
:1004F00018401060106820F480201060086820F414
:10050000FE00086041F20801C4F202014FF41F002E
:100510000860FFF7ADFE4EF60851CEF200014FF035
:100520000060086080BD000080B582B000200190AE
:1005300000F040F8FFF732FF41F21801C4F2020167
:10054000086840F01000086041F20402C4F20102A1
:10055000106820F0F0001060106860F0C0001060BB
:10056000106840F020001060086840F00400086047
:1005700040F60001C4F20101086820F47000086030
:10058000086860F440000860086840F400100860E3
:10059000FFE741F21001C4F20101086840F4007065
:1005A000086040F61001C4F20101086840F0200024
:1005B0000860EEE741F20001C4F20201086840F46D
:1005C00080300860086820F080700860FFE741F222
:1005D0000000C4F2020000688003002801D4FFE795
:1005E000F5E741F20001C4F20201086820F08070D2
:1005F000086041F20402C4F20202106820F4741090
:100600001060106840F4E8101060086840F08070D6
:100610000860FFE741F20000C4F2020000688003B6
:10062000002801D4FFE7F5E741F20401C4F202011A
:10063000086820F003000860086840F002000860C5
:10064000FFE741F20400C4F20200006800F00C0071
:10065000082801D0FFE7F4E7704700000000000021
:100660000000010203040607080900008C060008C8
:10067000000000200400000050010008900600085F
:1006800008000020600600007001000800A24A0473
:04000005080001B539
:00000001FF
